:020000040800F2
:100000000010002001140008911300089313000849
:1000100000000000000000000000000000000000E0
:100020000000000000000000000000009513000820
:10003000000000000000000097130008991300085A
:100040005114000800000000511400085114000869
:1000500051140008511400085114000851140008EC
:100060000000000051140008511400085114000849
:100070005114000851140008511400080000000039
:100080005114000800000000000000005114000896
:100090000000000051140008511400085114000819
:1000A0000000000051140008000000005114000876
:1000B0000000000000000000000000000000000040
:1000C00010B5064C2378002B07D1054B002B02D02E
:1000D000044800E000BF0123237010BD0800002089
:1000E00000000000AC140008044B10B5002B03D036
:1000F0000349044800E000BF10BDC04600000000F6
:100100000C000020AC140008002243088B4274D37A
:1001100003098B425FD3030A8B4244D3030B8B4208
:1001200028D3030C8B420DD3FF22090212BA030C11
:100130008B4202D31212090265D0030B8B4219D3F2
:1001400000E0090AC30B8B4201D3CB03C01A524112
:10015000830B8B4201D38B03C01A5241430B8B425A
:1001600001D34B03C01A5241030B8B4201D30B0343
:10017000C01A5241C30A8B4201D3CB02C01A52416A
:10018000830A8B4201D38B02C01A5241430A8B422D
:1001900001D34B02C01A5241030A8B4201D30B0216
:1001A000C01A5241CDD2C3098B4201D3CB01C01A30
:1001B000524183098B4201D38B01C01A524143093A
:1001C0008B4201D34B01C01A524103098B4201D328
:1001D0000B01C01A5241C3088B4201D3CB00C01A95
:1001E000524183088B4201D38B00C01A524143080D
:1001F0008B4201D34B00C01A5241411A00D2014632
:10020000524110467047FFE701B5002000F006F8A4
:1002100002BDC0460029F7D076E770477047C04658
:1002200010B5040000F050FCFA218900FFF76CFFC4
:1002300000F056F8012000222100404200F020F892
:10024000002010BD10B5064A136810210B4313603F
:100250000020FFF7E5FF01F04FF8002010BDC04679
:1002600000200240024A1368013313607047C04601
:1002700024000020014B18687047C046240000206D
:1002800070B5002811DB8408134DC034A4006259F6
:1002900003231840C000FC331E008640B24389018E
:1002A0000B4083401343635170BDC0B20F22024024
:1002B000083A920806329200084BD3185D6803246E
:1002C0002040C000FF2214008440A54389010A4059
:1002D00082402A435A60E7E700E100E000ED00E0D9
:1002E00001380A4B98420FD8094A50600948036AFE
:1002F0001B021B0AC02109060B4303620023936003
:1003000007331360002070470120FCE7FFFFFF0068
:1003100010E000E000ED00E0F0B5C64600B582B0A8
:10032000002338E0032600E00026AE4035003D43C0
:100330000234A400554EA551554C25684246D4437D
:100340002E0026404A68D20302D5424615432E00AD
:100350004F4D2E606D682E0026404A68920302D5EC
:10036000424615432E004A4D6E60AD682E00264071
:100370004A68D20202D5424615432E00444DAE6073
:10038000ED682C404A68920202D542462A43140086
:100390003F4AD46001330A681400DC4071D0012563
:1003A0009D402A409046F5D04C68022C01D0122C7A
:1003B0000ED1DC080834A400275807261E40B600DA
:1003C0000F22B24097430A69B24016003E432650BE
:1003D00002685F0003242600BE40F6433240944684
:1003E0004A681440BC406246144304604C68621E74
:1003F000012A03D9112C01D0122C10D18468344069
:10040000A446CC68BC406246144384604468AC4354
:100410004A681209012515409D4025434560C4687E
:1004200026408C68BC403443C4604A68D200B1D5D1
:10043000184DAE6901242643AE61AD692C4001948C
:10044000019C9C08A51CAD00104EAF5903251D4012
:10045000AD000F26AE40B7439026F605B04200D15E
:1004600062E70D4EB04208D00C4EB04207D00C4EA1
:10047000B04200D156E7052657E7012655E7022688
:1004800053E702B004BC9046F0BDC04600000140F6
:100490000004014000100240000400480008004829
:1004A000000C0048002A01D1816270478161FCE79D
:1004B00070B582B004000368DB0726D5AE4B5A68DE
:1004C0000C231340042B18D0AB4B5A680C23134059
:1004D000082B0ED06368012B3CD0002B51D1A64BCA
:1004E0001A68A6490A401A601A68A5490A401A60A3
:1004F00036E0A14B5B68DB03ECD59F4B1B689B038D
:1005000003D56368002B00D1ECE123689B0773D50A
:10051000994B5B680C221A425DD0974B5A680C23AA
:100520001340082B53D0E368002B00D186E0924A99
:10053000136801210B431360FFF79CFE05008E4BEF
:100540001B689B0771D4FFF795FE401B0228F6D964
:100550000320CAE1884A116880235B020B431360C1
:100560006368002B25D0FFF785FE0500824B1B68D2
:100570009B03CAD4FFF77EFE401B6428F6D90320F4
:10058000B3E1052B09D07C4B1A687C490A401A60FC
:100590001A687B490A401A60E2E7774B19688022A3
:1005A000D2020A431A601968802252020A431A6072
:1005B000D6E7FFF75FFE05006F4B1B689B03A4D5D2
:1005C000FFF758FE401B6428F6D903208DE16A4BE3
:1005D0005B68DB03A7D4684B1B689B0704D5E36803
:1005E000012B01D0012080E163490B68F82293437D
:1005F0002269D20013430B6023681B0744D5E369CB
:10060000002B2ED05C4A536A01210B435362FFF743
:1006100031FE0500584B5B6A9B0735D4FFF72AFE75
:10062000401B0228F6D903205FE153490B68F822EA
:1006300093432269D20013430B60DDE74E4A1368EF
:1006400001218B431360FFF715FE05004A4B1B6821
:100650009B07D1D5FFF70EFE401B0228F6D90320D9
:1006600043E1454A536A01218B435362FFF702FE7F
:100670000500414B5B6A9B0706D5FFF7FBFD401B5E
:100680000228F6D9032030E123685B0700D47FE01D
:10069000394BDB69DB001DD4374AD1698020400526
:1006A0000143D161D36903400193019B0125354B7F
:1006B0001B68DB0510D5A368012B21D0002B36D198
:1006C0002D4B1A6A01218A431A621A6A03318A433E
:1006D0001A621AE00025EAE72A4A116880235B00C3
:1006E0000B431360FFF7C6FD0600264B1B68DB05B6
:1006F000E1D4FFF7BFFD801B6428F6D90320F4E0A6
:100700001D4A136A01210B431362A368002B24D0F6
:10071000FFF7B0FD0600184B1B6A9B0736D4FFF7A6
:10072000A9FD801B184B9842F5D90320DDE0052B6D
:1007300009D0114B1A6A01218A431A621A6A0331DD
:100740008A431A62E1E70C4B1A6A04210A431A62CF
:100750001A6A03390A431A62D7E7FFF78BFD0600CE
:10076000054B1B6A9B0711D5FFF784FD801B064BC9
:100770009842F5D90320B8E000100240FFFFFEFFC9
:10078000FFFFFBFF0070004088130000012D33D0F5
:100790002368DB0610D56369012B33D0053351D1B3
:1007A000544A536B04218B435363536BF4318B4393
:1007B000A169C9000B435363236A002B00D193E066
:1007C0004C4A51680C220A40082A00D18FE0022BC3
:1007D0004FD0484A136848490B401360FFF74AFD61
:1007E0000400444B1B689B017AD5FFF743FD001BB7
:1007F0000228F6D9032078E03E4AD3693F490B40EE
:10080000D361C5E73B4B5A6B04210A435A635A6BC9
:1008100003390A435A63FFF72DFD0500354B5B6B27
:100820009B0706D4FFF726FD401B0228F6D90320BC
:100830005BE030494B6BF8229343A269D20013432B
:100840004B63B9E72B4B5A6B04210A435A635A6B2B
:1008500003398A435A63FFF70DFD0500254B5B6B97
:100860009B07A9D5FFF706FD401B0228F6D90320F8
:100870003BE0204A136820490B401360FFF7FAFC65
:1008800005001C4B1B689B0106D5FFF7F3FC401BC2
:100890000228F6D9032028E0164BDA6A0F218A4392
:1008A000E16A0A43DA625A6815490A40A16A606A35
:1008B00001430A435A601968802252040A431A60AD
:1008C000FFF7D8FC04000B4B1B689B0106D4FFF715
:1008D000D1FC001B0228F6D9032006E0002004E02A
:1008E000002002E0012000E0002002B070BD0120E5
:1008F000FBE7C04600100240FFFFFFFEFFFFFFEFD7
:10090000FFFFC2FF30B589B004AA174B180032C8E8
:1009100032C2110002680A606A46103313CB13C258
:100920001B681360114B5A680C231340082B19D114
:10093000910C0733194004A8445C0C49C96A0B4068
:100940006946C95CD30308D463011B1B9801C01A14
:10095000C0000419200209B030BD0548FFF7D4FBE0
:100960006043F8E70248F6E7C414000800100240AC
:1009700000127A0070B505000C004D4B1A68012377
:1009800013408B420BD24A490B6801229343234305
:100990000B600B681A40A24201D0012070BD2B6889
:1009A0009B0706D5434A5368F0218B43A9680B4344
:1009B00053602B68DB074BD56B68012B20D0022BD3
:1009C00024D03C4A126892076FD53A494A680320FE
:1009D000824313434B60FFF74DFC06006B68012B0D
:1009E0001AD0022B26D0334B5B680C221A422FD030
:1009F000FFF740FC801B304B9842F4D90320CDE731
:100A00002C4A12689203E0D40120C7E7294A1268F1
:100A10009201DAD40120C1E7264B5A680C23134017
:100A2000042B15D0FFF726FC801B234B9842F3D9EB
:100A30000320B3E71F4B5A680C231340082B07D041
:100A4000FFF718FC801B1C4B9842F3D90320A5E745
:100A5000174B1A6801231340A3420BD914490B68A2
:100A60000122934323430B600B681A40A24201D03A
:100A7000012093E72B685B0706D50E4A53680F49A0
:100A80000B40E9680B435360FFF73CFF094B5A6882
:100A900012090F2313400A4AD35CD840094B18604F
:100AA0000020FFF7BDFB002078E7012076E7C04675
:100AB000002002400010024088130000FFF8FFFFF2
:100AC000E414000804000020014B18687047C04679
:100AD0000400002010B5FFF7F7FF044B5A68120A14
:100AE00007231340024AD35CD84010BD00100240D7
:100AF000F414000870B582B004000368DB0335D538
:100B00003C4BDB69DB0048D43A4AD1698020400580
:100B10000143D161D36903400193019B0125364B09
:100B20001B68DB053BD5334B1B6AC0229200134088
:100B300013D061680A409A420FD02E4B186A2F4A90
:100B400002401E6A8021490231431962196A2C4E03
:100B5000314019621A62C30735D4264A136A2749FD
:100B60000B4061680B431362012D3BD02368DB0708
:100B700006D5204A136B03218B43A1680B431363F3
:100B800023689B0633D51B4A136B10218B43E16806
:100B90000B431363002002B070BD0025BFE7164A67
:100BA000116880235B000B431360FFF763FB0600B3
:100BB000114B1B68DB05B6D4FFF75CFB801B642878
:100BC000F6D90320E7E7FFF755FB0600094B1B6A40
:100BD0009B07C2D4FFF74EFB801B0A4B9842F5D906
:100BE0000320D8E7D36908490B40D361BEE7002052
:100BF000D1E7C0460010024000700040FFFCFFFF3C
:100C0000FFFFFEFF88130000FFFFFFEF10B5040099
:100C100083680269134342691343C269134301683D
:100C20000A685C48024013430B60226853685A49C3
:100C30000B40E1680B435360A269236A1A432168A1
:100C40008B685648034013438B60554B1A6B032344
:100C50001340012B26D0002B05D0022B24D0032BD0
:100C600024D0102300E0002380221202E169914287
:100C70001ED0022B00D16FE05ED9042B00D179E0A9
:100C8000082B00D084E06368580880231B029C4630
:100C900060446168FFF738FA23680004000CD860EC
:100CA00000202EE00423DFE70823DDE70223DBE753
:100CB000022B27D00FD9042B2FD0082B39D16368F2
:100CC000580880235B029C4660446168FFF71CFA69
:100CD00083B200200CE0002B2BD1FFF7FBFE40007D
:100CE00063685B08C0186168FFF70EFA83B20020E2
:100CF0000F22190091435B10083A13400B432268FE
:100D0000D36010BD63685808264B9C4660446168F8
:100D1000FFF7FAF983B20020EAE7FFF7F3FD40009E
:100D200063685B08C0186168FFF7EEF983B20020C2
:100D3000DEE701200023DBE7002B29D1FFF7CAFE05
:100D400063685B08C0186168FFF7DEF92368000478
:100D5000000CD8600020D4E763685808124B9C460A
:100D600060446168FFF7D0F923680004000CD86084
:100D70000020C6E7FFF7C6FD63685B08C01861681E
:100D8000FFF7C2F923680004000CD8600020B8E720
:100D90000120B6E7F369FFFFFFCFFFFFFFF4FFFF7E
:100DA000001002400024F40000127A00436ADB07BE
:100DB00006D5026853682C490B40816A0B43536087
:100DC000436A9B0706D50268536828490B40C16AED
:100DD0000B435360436A5B0706D502685368244996
:100DE0000B40016B0B435360436A1B0706D5026837
:100DF000536820490B40416B0B435360436ADB0649
:100E000006D5026893681C490B40816B0B439360C5
:100E1000436A9B0606D50268936818490B40C16B6C
:100E20000B439360436A5B060BD502685368144911
:100E30000B40016C0B43536080235B03026C9A42AE
:100E40000AD0436A1B0606D5026853680D490B4059
:100E5000816C0B4353607047026853680A490B402A
:100E6000416C0B435360ECE7FFFFFDFFFFFFFEFF0C
:100E7000FFFFFBFFFF7FFFFFFFEFFFFFFFDFFFFF36
:100E8000FFFFEFFFFFFFF7FFFFFF9FFF0023C3669A
:100E900020226921425401314254483283540020B7
:100EA0007047000010B5041E30D06923C35C002BCE
:100EB00022D069232422E2542268136801218B4343
:100EC00013602000FFF7A2FE012814D0636A002BF4
:100ED00018D1226853680E490B405360226893680A
:100EE00008218B4393602268136807390B43136012
:100EF0002000FFF7CBFF10BD68330022C25400F082
:100F000013FAD6E72000FFF751FFE2E70120F2E7EE
:100F1000FFF7FFFFF0B5C64600B506000C0017004E
:100F20009846069D3368DB6923401B1B5A42534198
:100F3000BB421ED16B1CF5D0002D05D0FFF79AF9EE
:100F40004346C01AA842EDD9326813680B490B40DA
:100F5000136032689368A331FF318B439360202381
:100F60006922B3540132B35448330022F2540320AF
:100F700000E0002004BC9046F0BDC0465FFEFFFFCD
:100F8000F0B585B004000F0016001D006A23C35C95
:100F9000202B73D1002900D173E0002A00D172E028
:100FA00080235B0182689A4221D06823E35C012B95
:100FB00000D16AE068230122E2540023E3666A3329
:100FC0002132E254FFF756F903905823E6520233D8
:100FD000E652A3688022520193420FD0002B13D116
:100FE0002369002B17D15C33FF22E2520CE0036926
:100FF000002BDAD1CB07D8D5012040E02369002BA4
:1010000005D15C33234AE2525C23E65A0DE05C23AF
:10101000FF22E252F8E75C237F22E252F4E72368E2
:101020009B8CF2B213403B7001375A23E35A9BB2B8
:10103000002B1BD05A22A35A013B9BB2A35200950E
:10104000039B002220212000FFF764FF00281ED10F
:1010500080235B01A2689A42E1D12369002BDED193
:1010600023689B8C33403B800237DEE76A332022C3
:10107000E254023B0022E254002000E0022005B0CE
:10108000F0BD0120FBE70120F9E70220F7E703208C
:10109000F5E7C046FF01000030B587B014220021FB
:1010A00001A800F0FBF90F4A51698020800201433A
:1010B0005161536903400093009B0B4D9024E4055C
:1010C000002229002000FFF7EDF90195012302938A
:1010D00000230393049301A92000FFF71DF907B033
:1010E00030BDC046001002400266000010B509483D
:1010F000094B036096239B01436000238360C36018
:101100000361042242618361C36103624362FFF7AA
:10111000C9FE10BD2C0000200038014010B5084B5E
:101120001B68DB699B0600D410BD642301220549BE
:101130000348FFF725FF044B01221A70F4E7C0466D
:101140002C000020280000200000002030B595B0C1
:101150002C22002109A800F0A1F91022002104A8E6
:1011600000F09CF910220021684600F097F9022354
:10117000089301250B950E330C9308A8FFF798F9F7
:10118000072304930024059406940794002104A8DF
:10119000FFF7F0FB009502946846FFF7ABFC15B033
:1011A00030BD000010B5FFF74DF8FFF7CFFFFFF798
:1011B00073FFFFF79BFF80219024E4050122C90102
:1011C0002000FFF76FF98021012289012000FFF73D
:1011D00069F980210122C9002000FFF763F980210D
:1011E000012289002000FFF75DF93EE0002B3CD191
:1011F00080219024E4050122C9012000FFF752F963
:101200008021012289012000FFF74CF98021012271
:10121000C9002000FFF746F9802101228900200043
:10122000FFF740F921E0642B5AD0DAB2642A0BD9D7
:10123000732B4DD0772B18D1802190200122C9012A
:10124000C005FFF72FF910E0612B0ED1802190200F
:101250000122C900C005FFF725F906E08021902092
:101260000022C901C005FFF71DF9214A1378013397
:101270001370902001220221C005FFF713F9FFF738
:101280004DFF1C4B1B78572BE8D0DAB2572ACAD82F
:10129000412B0DD0412AA9D9442B11D0532BE4D195
:1012A0008021902000228901C005FFF7FBF8DCE7D0
:1012B000802190200022C900C005FFF7F3F8D4E791
:1012C0008021902000228900C005FFF7EBF8CCE7D1
:1012D0008021902001228901C005FFF7E3F8C4E7CF
:1012E0008021902001228900C005FFF7DBF8BCE7D0
:1012F000000000202800002082B00A4B99690122DA
:101300001143996199690A400092009ADA69802133
:1013100049050A43DA61DB690B400193019B02B086
:101320007047C0460010024010B588B00400142277
:10133000002103A800F0B2F82268134B9A4201D0B2
:1013400008B010BD114B99698020C001014399611B
:101350009A6902400192019A5A69802189020A43DE
:101360005A615B690B400293029B0C2303930A3B77
:10137000049301330693023B0793902003A9C00511
:10138000FEF7CAFFDCE7C04600380140001002400B
:101390007047FEE77047704710B5FEF763FF10BD5A
:1013A000114B1A6801210A431A605A680F4802401B
:1013B0005A601A680E4802401A601A680D480240C6
:1013C0001A605A680C4802405A60DA6A0F20824359
:1013D000DA621A6B094802401A635A6B8A435A63ED
:1013E00000229A607047C046001002400CB8FF0807
:1013F000FFFFF6FEFFFFFBFFFFFFC0FFECFEFFFF5E
:101400000D4885460D480E490E4A002302E0D45887
:10141000C4500433C4188C42F9D30B4A0B4C00233C
:1014200001E013600432A242FBD3FFF7B9FF00F0E2
:1014300011F8FFF7B7FEFEE70010002000000020C3
:101440000800002004150008080000209C0000206F
:10145000FEE7000070B500260C4D0D4C641BA41077
:10146000A64209D1002600F021F80A4D0A4C641B5F
:10147000A410A64205D170BDB300EB5898470136C1
:10148000EEE7B300EB5898470136F2E7FC1400088A
:10149000FC140008FC1400080015000803001218D2
:1014A000934200D1704719700133F9E7F8B5C0468F
:1014B000F8BC08BC9E467047F8B5C046F8BC08BCEE
:0414C0009E4670478D
:1014C40002030405060708090A0B0C0D0E0F101081
:1014D4000102030405060708090A0B0C0D0E0F1080
:1014E40000000000000000000102030406070809D0
:0814F4000000000001020304E6
:0414FC00E9000008FB
:04150000C10000081E
:081504000100000000127A0052
:0400000508001401DA
:00000001FF
